S01E000041544D454741333238505F50574D5F434F4E54524F4C2E7372656397
S11300000C9400010C94A7030C94D8030C941D01C8
S11300100C941D010C945E030C941D010C941D01A1
S11300200C941D010C941D010C941D010C941D01D4
S11300300C941D010C941D010C941D010C941D01C4
S11300400C941D010C941D010C94F0010C941D01E1
S11300500C941D010C941D010C941D010C941D01A4
S11300600C941D010C941D0108000000BE9224494B
S1130070123EABAAAA2ABECDCCCC4C3E00000080D6
S1130080BEABAAAAAA3E00000000BF000000803F49
S11300900000000000084178D3BB4387D1133D1909
S11300A00E3CC3BD4282AD2B3E68EC8276BED98F36
S11300B0E1A93E4C80EFFFBE01C4FF7F3F0000007A
S11300C000006E616E00696E660000407A10F35A9B
S11300D000A0724E18090010A5D4E80000E8764884
S11300E0170000E40B54020000CA9A3B000000E130
S11300F0F505000080969800000040420F000000C3
S1130100A08601000000102700000000E8030000A2
S113011000006400000000000A000000000001006C
S1130120000000002C76D888DC674F0823DFC1DF8D
S1130130AE59E1B1B796E5E3E453C63AE651997690
S113014096E8E6C28426EB898C9B62ED407C6FFCCA
S1130150EFBC9C9F40F2BAA56FA5F490055A2AF70C
S11301605C936B6CF9676DC11BFCE0E40D47FEF515
S113017020E6B500D0ED902E03009435770500807D
S1130180841E080000204E0A000000C80C333333DC
S1130190330F986E12831141EF8D2114893BE6557C
S11301A016CFFEE6DB18D1844B381BF77C1D901D5F
S11301B0A4BBE424203284725E228100C9F124ECC1
S11301C0A1E53D274E414E494E495459494E46CD2D
S11301D0CCCC3D0AD7233C17B7D13877CC2B3295FA
S11301E095E6241FB14F0A000020410000C84200D8
S11301F0401C4620BCBE4CCA1B0E5AAEC59D7400A2
S113020011241FBECFEFD8E0DEBFCDBF11E0A0E0C8
S1130210B1E0E2E0FFE102C005900D92A63DB10716
S1130220D9F722E0A6EDB1E001C01D92A930B207D2
S1130230E1F70E94D8050C947F0F0C940000F99903
S1130240FECF92BD81BD60BDFA9AF99A0895F999DD
S1130250FECF92BD81BDF89A80B50895DF92EF92EA
S1130260FF920F931F93CF93DF938C017A01D22EC9
S11302706417750748F00EC0F80181938F01219629
S1130280CE15DF0510F006C0EB01CE010E94270158
S11302908D11F2CFDF91CF911F910F91FF90EF90CD
S11302A0DF9008950F931F93CF93DF93262FFC01C4
S11302B06081662371F08C010F5F1F4FC22FD72F0F
S11302C0CE010E941F01F80161918F0121966111F5
S11302D0F7CFDF91CF911F910F91089595B1282FFA
S11302E0207F26952695937C922B95B995B19E7F78
S11302F0692B65B9299AEFE9FFE03197F1F700C05E
S11303000000299895B18F70880F880F937C892BF2
S113031085B9299A8FE99FE00197F1F700C00000A1
S11303202998089560E00E946E01089561E00E949A
S11303306E01089581E00E9492010895CF93DF93A6
S1130340EC01613039F480E80E94920188818111C6
S113035007C00CC06230D1F780EC0E949201F6CF46
S113036021960E94960189918111FBCFDF91CF9153
S113037008958FEF8AB981E00E94920182E00E9481
S1130380920188E20E9492018CE00E94920181E035
S11303900E94920180E80E9492010895E0ECF0E04E
S11303A0108280818068808389E98093C10086E01F
S11303B08093C2001092C50087E68093C40008951C
S11303C0E0ECF0E0908195FFFDCF8093C6000895A6
S11303D0E0ECF0E080818823ECF78091C60008957A
S11303E01F920F920FB60F9211242F933F934F93A6
S11303F05F936F937F938F939F93AF93BF93EF9389
S1130400FF930E94E8018A3039F18D3089F0E09140
S1130410DD01F091DE01E152FE4F80838091DD0128
S11304209091DE0101969093DE018093DD0114C06A
S1130430E091DD01F091DE01E152FE4F10826FED9B
S113044071E083EF91E00E94FC0C1092DE011092A7
S1130450DD0181E08093DC01FF91EF91BF91AF91C9
S11304609F918F917F916F915F914F913F912F91C8
S11304700F900FBE0F901F901895CF93DF93EC0150
S11304808881882331F021960E94E00189918111AD
S1130490FBCF8AE00E94E0018DE00E94E001DF9141
S11304A0CF910895ECE7F0E0108290818F70982B43
S11304B09083EAE7F0E080818068808380818064B3
S11304C08083808186FDFDCF309178008091790012
S11304D0EAE7F0E0908120819F77922B908390E06F
S11304E0982F8827830F911D0895EF92FF920F9301
S11304F01F93CF93DF93CDB7DEB72A970FB6F89447
S1130500DEBF0FBECDBF0E949A0161E08CE091E096
S11305100E949E0162E084E191E00E949E0180912C
S1130520DB018F938091DA018F938091D9018F93AE
S11305308091D8018F930F2EF7E1EF2EF1E0FF2E7B
S1130540F02DFF92EF928E010F5F1F4F1F930F93B9
S11305500E944A0D60E0C8010E949E0160E08CE1A7
S113056091E00E949E018AE0F80111928A95E9F7D0
S113057080910B018F9380910A018F9380910901DF
S11305808F93809108018F93FF92EF921F930F93A3
S11305900E944A0D60E0C8010E949E010FB6F894C3
S11305A0DEBF0FBECDBF2A960FB6F894DEBF0FBED6
S11305B0CDBFDF91CF911F910F91FF90EF900895E0
S11305C0EF92FF920F931F93CF93DF93CDB7DEB7D4
S11305D02A970FB6F894DEBF0FBECDBF0E949A01D2
S11305E061E081E291E00E949E0162E084E191E099
S11305F00E949E018091040190910501A091060141
S1130600B0910701BF93AF939F938F930F2EF7E1A0
S1130610EF2EF1E0FF2EF02DFF92EF928E010F5F8F
S11306201F4F1F930F930E944A0D60E0C8010E9460
S11306309E0160E08CE191E00E949E018AE0F80155
S113064011928A95E9F78091000190910101A0919E
S11306500201B0910301BF93AF939F938F93FF92D5
S1130660EF921F930F930E944A0D60E0C8010E940D
S11306709E010FB6F894DEBF0FBECDBF2A960FB60B
S1130680F894DEBF0FBECDBFDF91CF911F910F91C4
S1130690FF90EF9008958AB18AB9EDE6F0E0808189
S11306A080618083E8E6F0E080818460808383E079
S11306B08DBB8FE080936900789408951F920F9208
S11306C00FB60F9211248F939F934C9B11C080916E
S11306D0D6019091D701892B39F481E090E0909371
S11306E0D7018093D60104C01092D7011092D6018D
S11306F09F918F910F900FBE0F901F901895CF93DD
S1130700DF93EC01688179818A819B8120E030E06C
S113071040E05FE30E940306688379838A839B83B6
S1130720DF91CF910895CF93DF93EC0168817981B4
S11307308A819B8120E030E040E05FE30E94020672
S1130740688379838A839B83DF91CF9108951F9275
S11307500F920FB60F9211242F933F934F935F93F1
S11307606F937F938F939F93AF93BF93EF93FF9375
S11307708091D6019091D701892B29F484E091E0EE
S11307800E947F0304C080E091E00E947F03FF91F8
S1130790EF91BF91AF919F918F917F916F915F91F5
S11307A04F913F912F910F900FBE0F901F9018956E
S11307B01F920F920FB60F9211242F933F934F93D2
S11307C05F936F937F938F939F93AF93BF93EF93B5
S11307D0FF938091D6019091D701892B29F484E06D
S11307E091E00E94930304C080E091E00E9493038F
S11307F0FF91EF91BF91AF919F918F917F916F91F5
S11308005F914F913F912F910F900FBE0F901F90CA
S1130810189517B88FEF84B98FE085B92FEF83ED62
S113082090E3215080409040E1F700C000000E9416
S1130830B9010E944B0308959F92AF92BF92CF9249
S1130840DF92EF92FF920F931F93CF93DF93CDB775
S1130850DEB764970FB6F894DEBF0FBECDBF80E05D
S113086090E00E945202BC01990F880B990B0E94E0
S1130870E30620E030E040EA50E40E94BF0720E0B5
S113088030EC4FE754E40E946F06C62ED72EE82EB4
S1130890F92E89E291E00E943D02FF92EF92DF92ED
S11308A0CF928CE391E09F938F938E010F5F1F4F44
S11308B01F930F930E944A0DC8010E943D022C2DE4
S11308C03D2D4E2D5F2D60E070E080EA90E40E94A3
S11308D06F0620E030E040E85FE30E94020620E07B
S11308E030E44CE156E40E94BF07A62EB72EC82E72
S11308F0D92E8FE391E00E943D020F2EF4E19F2E4A
S1130900F02DF801292D11922A95E9F7DF92CF9263
S1130910BF92AF920F2EF7E1EF2EF1E0FF2EF02DF4
S1130920FF92EF921F930F930E944A0DC8010E94F9
S11309303D0220E030E44CE156E46A2D7B2D8C2D01
S11309409D2D0E946F060E94770720E030EC43E75C
S113095055E40E946F062FE03FEC4BE55BE30E94F9
S113096003069B01AC0160E070E080E89FE30E9415
S11309706F0623E333E948E853E40E940206A62EF7
S1130980B72EC82ED92E81E591E00E943D02F801D0
S113099011929A94E9F7DF92CF92BF92AF92FF92AD
S11309A0EF921F930F930E944A0DC8010E943D02CB
S11309B08A2D9B2DAC2DBD2D8093D8019093D90108
S11309C0A093DA01B093DB018091D6019091D70115
S11309D00FB6F894DEBF0FBECDBF892B29F484E691
S11309E091E00E943D0204C08CE691E00E943D0229
S11309F064960FB6F894DEBF0FBECDBFDF91CF91E2
S1130A001F910F91FF90EF90DF90CF90BF90AF9028
S1130A109F900895AF92BF92CF92DF92EF92FF9290
S1130A200F931F93CF93DF93CDB7DEB72A970FB6FB
S1130A30F894DEBF0FBECDBF20E045E050E060E09B
S1130A4070E08E010F5F1F4FC8010E942E01C80184
S1130A500E94150CF62EE72ED82EC92E84E791E0BD
S1130A600E943D02C8010E943D02CF92DF92EF92A4
S1130A70FF920F2EF7E1EF2EF1E0FF2EF02DFF9203
S1130A80EF921F930F930E944A0DC8010E943D02EA
S1130A9020E045E050E06AE070E0C8010E942E01C9
S1130AA0C8010E94150CD62EC72EB82EA92E8DE88B
S1130AB091E00E943D02C8010E943D02AF92BF92A4
S1130AC0CF92DF92FF92EF921F930F930E944A0DF1
S1130AD0C8010E943D020FB6F894DEBF0FBECDBF21
S1130AE02A960FB6F894DEBF0FBECDBFDF91CF912B
S1130AF01F910F91FF90EF90DF90CF90BF90AF9038
S1130B000895EF92FF920F931F93CF93DF93CDB786
S1130B10DEB72A970FB6F894DEBF0FBECDBF809123
S1130B20040190910501A0910601B0910701BF93C2
S1130B30AF939F938F930F2EF7E1EF2EF1E0FF2EEB
S1130B40F02DFF92EF928E010F5F1F4F1F930F93B3
S1130B500E944A0D60E070E0C8010E945201809139
S1130B60000190910101A0910201B0910301BF9392
S1130B70AF939F938F93FF92EF921F930F930E94D3
S1130B804A0D6AE070E0C8010E9452010FB6F89461
S1130B90DEBF0FBECDBF2A960FB6F894DEBF0FBEE0
S1130BA0CDBFDF91CF911F910F91FF90EF900895EA
S1130BB00E9409040E94CE0181EC91E00E943D0252
S1130BC062E087EC91E00E949E010E9481050E94F0
S1130BD00A058091DC01813011F41092DC012FEFC1
S1130BE087EA91E6215080409040E1F700C0000080
S1130BF00E941C044D9B03C00E94E002EACF0E94A5
S1130C007502E7CF5058BB27AA270E941A060C94F6
S1130C1035070E94270738F00E942E0720F039F488
S1130C209F3F19F426F40C9424070EF4E095E7FB97
S1130C300C941E07E92F0E94460758F3BA1762075F
S1130C4073078407950720F079F4A6F50C946807D8
S1130C500EF4E0950B2EBA2FA02D0B01B9019001D3
S1130C600C01CA01A0011124FF27591B99F0593F17
S1130C7050F4503E68F11A16F040A22F232F342F5F
S1130C804427585FF3CF469537952795A795F040AD
S1130C905395C9F77EF41F16BA0B620B730B840BC2
S1130CA0BAF09150A1F0FF0FBB1F661F771F881F7A
S1130CB0C2F70EC0BA0F621F731F841F48F48795D2
S1130CC077956795B795F7959E3F08F0B0CF9395C4
S1130CD0880F08F09927EE0F9795879508950E943D
S1130CE083060C9435070E942E0758F00E942707AC
S1130CF040F029F45F3F29F00C941E0751110C9425
S1130D0069070C9424070E94460768F39923B1F3FA
S1130D10552391F3951B550BBB27AA27621773071D
S1130D20840738F09F5F5F4F220F331F441FAA1FB1
S1130D30A9F335D00E2E3AF0E0E832D0915050406D
S1130D40E695001CCAF72BD0FE2F29D0660F771F1B
S1130D50881FBB1F261737074807AB07B0E809F001
S1130D60BB0B802DBF01FF2793585F4F3AF09E3F86
S1130D70510578F00C941E070C9469075F3FE4F367
S1130D80983ED4F3869577956795B795F7959F5FC9
S1130D90C9F7880F911D9695879597F90895E1E015
S1130DA0660F771F881FBB1F621773078407BA0774
S1130DB020F0621B730B840BBA0BEE1F88F7E095CF
S1130DC00895E89409C097FB3EF49095809570953A
S1130DD061957F4F8F4F9F4F9923A9F0F92F96E983
S1130DE0BB279395F695879577956795B795F111F8
S1130DF0F8CFFAF4BB0F11F460FF1BC06F5F7F4F95
S1130E008F4F9F4F16C0882311F096E911C07723A6
S1130E1021F09EE8872F762F05C0662371F096E8AF
S1130E20862F70E060E02AF09A95660F771F881F7E
S1130E30DAF7880F9695879597F9089597F99F673C
S1130E4080E870E060E008959FEF80EC089500244E
S1130E500A941616170618060906089500240A941B
S1130E6012161306140605060895092E0394000CA1
S1130E7011F4882352F0BB0F40F4BF2B11F460FF30
S1130E8004C06F5F7F4F8F4F9F4F089557FD905859
S1130E90440F551F59F05F3F71F04795880F97FB3A
S1130EA0991F61F09F3F79F08795089512161306F4
S1130EB01406551FF2CF4695F1DF08C01616170623
S1130EC01806991FF1CF8695710561050894089558
S1130ED0E894BB2766277727CB0197F9089516F086
S1130EE00C942C080C94240768940C941E070E94FC
S1130EF04E07A8F39923C1F3AEF3DF93CF931F9367
S1130F000F93FF92C92FDD2788232AF02197660FBC
S1130F10771F881FDAF720E030E040E85FEB9FE3BB
S1130F20883920F0803E38F021968F770E9403069E
S1130F30E8E6F0E004C00E940306E5E9F0E00E9460
S1130F403A088B01BE01EC01FB2E6F5771097595B0
S1130F50771F880B990B0E94E30628E132E741E3EF
S1130F605FE30E94D207AF2D9801AE01FF900F916D
S1130F701F91CF91DF910E941A060C9435070E94AD
S1130F80D2070C9435070E94270738F00E942E07D9
S1130F9020F0952311F00C941E070C9424071124BF
S1130FA00C9469070E94460770F3959FC1F3950F4F
S1130FB050E0551F629FF001729FBB27F00DB11DD9
S1130FC0639FAA27F00DB11DAA1F649F6627B00D69
S1130FD0A11D661F829F2227B00DA11D621F739F52
S1130FE0B00DA11D621F839FA00D611D221F749F60
S1130FF03327A00D611D231F849F600D211D822FA7
S1131000762F6A2F11249F5750409AF0F1F08823CD
S11310104AF0EE0FFF1FBB1F661F771F881F9150FA
S11310205040A9F79E3F510580F00C941E070C9484
S113103069075F3FE4F3983ED4F386957795679507
S1131040B795F795E7959F5FC1F7FE2B880F911D24
S11310509695879597F908959F3F31F0915020F424
S1131060879577956795B795880F911D9695879580
S113107097F90895DF93CF931F930F93FF92EF9205
S1131080DF927B018C01689406C0DA2EEF010E9486
S1131090D207FE01E894A59125913591459155918A
S11310A0A6F3EF010E941A06FE019701A801DA9443
S11310B069F7DF90EF90FF900F911F91CF91DF912F
S11310C00895A0E1B0E0E7E6F8E00C94DE0B7C01C3
S11310D01B016A01FC0117821682838181FF44C3CC
S11310E09E012F5F3F4F3901F7019381F10193FD79
S11310F0859193FF81911F01882309F431C38532BF
S113110039F493FD859193FF81911F01853239F460
S1131110B70190E00E940E0D56016501E5CF10E085
S1131120512C912CFFE1F915D8F08B3279F038F479
S1131130803279F08332A1F4F92DF0612EC08D3222
S113114061F0803369F4292D21602DC0392D32607E
S1131150932E892D8460982E2AC0E92DE86015C04D
S113116097FC2DC020ED280F2A3088F496FE06C087
S11311703AE0139F200D1124122F19C08AE0589EC3
S1131180200D1124522EE92DE0629E2E10C08E32C5
S113119031F496FCE5C2F92DF0649F2E08C08C361C
S11311A021F4292D2068922E02C0883641F4F101E1
S11311B093FD859193FF81911F018111B3CF9BEB27
S11311C0980F933020F4992D9061805E07C09BE9BD
S11311D0980F933008F066C1992D9F7E96FF16E014
S11311E09F73992E853619F49064992E08C086361B
S11311F021F4392F3068932E02C01111115097FE3B
S113120007C01C3350F444244394410E27E00BC020
S1131210183038F027E017E005C027E09CE3492E9A
S113122002C0212F412C560184E0A80EB11CF60106
S11312306081718182819381042DA3010E94190C24
S11312406C01F981FC87F0FF02C0F3FF06C091FC3A
S113125006C092FE06C000E205C00DE203C00BE228
S113126001C000E08C858C7019F001115AC29BC238
S113127097FE10C04C0CFC85F4FF04C08A818133B6
S113128009F44A94141474F528E0241578F588E0D8
S1131290482E2CC096FC2AC0812F90E08C159D0509
S11312A09CF03CEFC3163FEFD30674F0892D8068A1
S11312B0982E0AC0E2E0F0E0EC0FFD1FE10FF11DF3
S11312C08081803319F411501111F4CF97FE0EC0B0
S11312D044244394410E812F90E0C816D9062CF47F
S11312E01C1904C04424439401C010E097FE06C0B6
S11312F01C141D0434F4C601019605C085E090E079
S113130002C081E090E001110196112331F0212FF8
S113131030E02F5F3F4F820F931F252D30E082175F
S1131320930714F4581A01C0512C892D897049F47B
S1131330552039F0B70180E290E00E940E0D5A94D6
S1131340F7CF002329F0B701802F90E00E940E0D03
S113135093FC09C0552039F0B70180E390E00E9466
S11313600E0D5A94F7CF97FE4CC04601D7FE02C02B
S1131370812C912CC60188199909F301E80FF91FF2
S1131380FE87ED87960124193109388B2F87012FA9
S113139010E01195019511093FEF8316930629F486
S11313A0B7018EE290E00E940E0DC814D9044CF0EF
S11313B08F8598898815990524F4ED85FE858181AA
S11313C001C080E3F1E08F1A91082D853E852F5FDF
S11313D03F4F3E872D87801691062CF0B70190E091
S11313E00E940E0DD9CFC814D90441F49A819633C2
S11313F020F4953319F43C8534FF81E3B70190E080
S11314004EC08A81813319F09C859F7E9C87B701E9
S113141090E00E940E0D111105C094FC18C085E6E1
S113142090E017C0B7018EE290E00E940E0D1E5F9F
S113143082E001E0080FF301E80FF11D8081B7019C
S113144090E00E940E0D802F0113F3CFE6CF85E4C8
S113145090E0B7010E940E0DD7FC06C0C114D10460
S113146041F4EC85E4FF05C0D194C194D1088DE228
S113147001C08BE2B70190E00E940E0D80E32AE0E8
S1131480C216D1042CF08F5FFAE0CF1AD108F7CF3F
S1131490B70190E00E940E0DB701C601C0960E94EC
S11314A00E0D54C1833631F0833779F0833509F05A
S11314B056C020C0560132E0A30EB11CF601808153
S11314C0898301E010E0630112C05601F2E0AF0E1F
S11314D0B11CF601C080D18096FE03C0612F70E07C
S11314E002C06FEF7FEFC6010E94030D8C01F92D3E
S11314F0FF7714C0560122E0A20EB11CF601C08091
S1131500D18096FE03C0612F70E002C06FEF7FEFC1
S1131510C6010E94F10C8C01F92DF0689F2EF3FD99
S11315201AC0852D90E008171907A8F4B70180E2C6
S113153090E00E940E0D5A94F4CFF60197FC859129
S113154097FE81916F01B70190E00E940E0D51103A
S11315505A94015011090115110579F7F7C0843621
S113156011F0893661F5560197FE09C024E0A20EF8
S1131570B11CF60160817181828193810AC0F2E01D
S1131580AF0EB11CF60160817181072E000C880B2F
S1131590990BF92DFF769F2E97FF09C090958095A2
S11315A0709561957F4F8F4F9F4FF0689F2E2AE073
S11315B030E0A3010E946C0DC82EC6183FC0092D4F
S11315C0853721F40F7E2AE030E01DC0097F8F3675
S11315D091F018F4883559F0C3C0803719F0883772
S11315E011F0BEC0006104FF09C0046007C094FE8E
S11315F008C0066006C028E030E005C020E130E005
S113160002C020E132E0560107FF09C084E0A80EC1
S1131610B11CF601608171818281938108C0F2E07E
S1131620AF0EB11CF6016081718180E090E0A301EE
S11316300E946C0DC82EC6180F77902E96FE0BC014
S1131640092D0E7FC11650F494FE0AC092FC08C006
S1131650092D0E7E05C0DC2C092D03C0DC2C01C035
S1131660D12E04FF0DC0FE01EC0DF11D80818033ED
S113167011F4097E09C002FF06C0D394D39404C0B8
S1131680802F867809F0D39403FD11C000FF06C0B3
S11316901C2DD51480F4150D1D190DC0D51458F446
S11316A0B70180E290E00E940E0DD394F7CFD514D9
S11316B010F45D1801C0512C04FF10C0B70180E381
S11316C090E00E940E0D02FF17C001FD03C088E7E1
S11316D090E002C088E590E0B7010CC0802F8678C6
S11316E059F001FF02C08BE201C080E207FD8DE2E8
S11316F0B70190E00E940E0DC11638F4B70180E3E3
S113170090E00E940E0D1150F7CFCA94F301EC0D36
S1131710F11D8081B70190E00E940E0DC110F5CF3C
S113172015C0F4E0F51560F584E0581A93FE1FC067
S1131730011127C02C8523FF2AC002EC10E0392DAB
S11317403071932EF8018491811124C0552009F43D
S1131750E4CCB70180E290E00E940E0D5A94F6CFDB
S1131760F7018681978126C08FEF9FEF23C0B701D1
S113177080E290E00E940E0D5A945110F8CFD8CF19
S1131780512CB701802F90E00E940E0DD3CF06ECB0
S113179010E0D5CF91108052B70190E00E940E0D59
S11317A00F5F1F4FCFCF23E0251510F483E0BDCF8B
S11317B0512CC0CF6096E2E10C94FA0B2F923F9229
S11317C04F925F926F927F928F929F92AF92BF924D
S11317D0CF92DF92EF92FF920F931F93CF93DF93F9
S11317E0CDB7DEB7CA1BDB0B0FB6F894DEBF0FBE56
S11317F0CDBF09942A88398848885F846E847D84A3
S11318008C849B84AA84B984C884DF80EE80FD80A4
S11318100C811B81AA81B981CE0FD11D0FB6F8941A
S1131820DEBF0FBECDBFED010895662777270C9468
S1131830CA0D283008F027E03327DA01990F311D4B
S113184087FD916000966105710539F432602E5F61
S11318503D9330E32A95E1F708959F3F30F08038B7
S11318607105610509F03C5F3C5F3D93913008F0E0
S11318708068911DDF93CF931F930F93FF92EF9294
S1131880192F987F9695E92F96959695E90FFF273E
S1131890EC5DFE4F99273327EE24FF24A701E701CF
S11318A005900894079428F4360FE71EF81E491F84
S11318B0511D660F771F881F991F0694A1F7059085
S11318C0079428F4E70EF81E491F561FC11D770F11
S11318D0881F991F661F0694A1F70590079428F4A2
S11318E0F80E491F561FC71FD11D880F991F661F69
S11318F0771F0694A1F70590079420F4490F561F0B
S1131900C71FD81F990F661F771F881F0694A9F752
S113191084911095177041F0D695C79557954795C2
S1131920F794E7941A95C1F7EAECF0E068941590FF
S1131930159135916591959105907FE27395E11824
S1131940F10A430B560BC90BD009C0F7E10CF11E89
S1131950431F561FC91FD01D7EF4703311F48A959E
S1131960E6CFE894015030F0080F0AF4002702177C
S113197008F4202F2395022F7A3328F079E37D93FE
S11319802A95E9F710C07D932A9589F606949795D0
S11319906795379517951794E118F10A430B560B81
S11319A0C90BD00998F023957E9173957A3308F08A
S11319B070E37C932013B8F77E9170617D9330F0CF
S11319C0839571E37D9370E32A95E1F71124EF90F9
S11319D0FF900F911F91CF91DF91992787FD9095EB
S11319E00895FC010590615070400110D8F780956E
S11319F090958E0F9F1F0895FB01DC0101900D92BD
S1131A000020E1F70895FC0161507040019001103D
S1131A10D8F7809590958E0F9F1F08950F931F936D
S1131A20CF93DF93FB01238121FD03C08FEF9FEF51
S1131A302CC022FF16C0468157812481358142176C
S1131A40530744F4A081B1819D012F5F3F4F31833F
S1131A5020838C93268137812F5F3F4F37832683E2
S1131A6014C08B01EC01FB010084F185E02D099584
S1131A70892BE1F6D80116968D919C9117970196C2
S1131A8017969C938E931697CE01DF91CF911F9159
S1131A900F910895AEE0B0E0E0E5FDE00C94EC0BAE
S1131AA00D891E8986E08C831A8309838FEF9FE753
S1131AB09E838D83AE01475E5F4F6F89788DCE0123
S1131AC001960E946108EF81F885E00FF11F1082F2
S1131AD02E96E4E00C94080CFA01AA27283051F160
S1131AE0203181F1E8946F936E7F6E5F7F4F8F4F4B
S1131AF09F4FAF4FB1E03ED0B4E03CD0670F781FAA
S1131B00891F9A1FA11D680F791F8A1F911DA11D8E
S1131B106A0F711D811D911DA11D20D009F46894C7
S1131B203F912AE0269F11243019305D3193DEF66F
S1131B30CF010895462F4770405D4193B3E00FD025
S1131B40C9F7F6CF462F4F70405D4A3318F0495D10
S1131B5031FD4052419302D0A9F7EACFB4E0A695F3
S1131B609795879577956795BA95C9F70097610515
S1131B70710508959B01AC010A2E0694579547956B
S1131B8037952795BA95C9F7620F731F841F951F60
S1131B90A01D0895A0E0B0E0E0EDFDE00C94E40B9E
S1131BA0EC016B016115710519F0FB0191838083D0
S1131BB07E01FFEFEF1AFF0A0881802F90E00E9458
S1131BC0180F892B11F0E701F3CF0D3239F47E01A0
S1131BD082E0E80EF11C098111E008C00B3229F4FF
S1131BE07E0192E0E90EF11C098110E0E7012197E2
S1131BF043E050E06CEC71E0CE010E94210F892B90
S1131C00C1F4239645E050E067EC71E0CE010E94F8
S1131C10210F892B09F42596C114D10419F0F6017A
S1131C20D183C0831111F6C060E070E080E89FE7C3
S1131C30FAC043E050E064EC71E0CE010E94210F51
S1131C40892B59F4C114D10409F4E9C0F2E0EF0E70
S1131C50F11CF601F182E082E2C020E030E0A9014B
S1131C60C0E0D0E0F70180EDA82EA00E89E08A152F
S1131C7030F1912F9260B92E812F887012FF04C029
S1131C80811124C0219622C081112197A5E0B0E0E2
S1131C900E94650FDC01CB01880F991FAA1FBB1F8F
S1131CA09C01AD012A0D311D411D511D283989E9C1
S1131CB03807480789E1580748F0166006C09EEFC8
S1131CC0A9120AC013FD40C01860B12E8FEFE81AA4
S1131CD0F80A00811B2DC6CF802F8F7D8534A1F596
S1131CE080818D3211F4106106C08B3221F031965F
S1131CF061E070E004C08181329662E070E080535C
S1131D008A3018F0E61BF70B1FC060E070E0603803
S1131D109CE079075CF4DB01AA0FBB1FAA0FBB1F71
S1131D206A0F7B1F660F771F680F711D3196DF01E5
S1131D3011978C9180538A3050F314FF03C071952E
S1131D4061957109C60FD71F11FF08C0C114D104D2
S1131D5029F0CF010197F60191838083CA01B9016B
S1131D600E94E106212F2370233019F04B015C01FE
S1131D7006C04B015C01B7FAB094B7F8B09420E008
S1131D8030E0A901C501B4010E94390F882309F488
S1131D903EC0D7FF06C0D195C195D10903EE11E02D
S1131DA002C00BEF11E06801F8E1CF1AD10890E20C
S1131DB0E92EF12CCE15DF0574F0F801259135914B
S1131DC045915491C501B4010E94BF074B015C01C8
S1131DD0CE19DF09EFCF04501109F594E7940C15DF
S1131DE01D0541F78A2D880F8B2D881F8F3F49F0E1
S1131DF020E030E0A901C501B4010E94390F81112E
S1131E0006C082E290E09093080280930702C50125
S1131E10B40109C060E070E080E89FEF04C060E0B6
S1131E2070E080EC9FE7CDB7DEB7ECE00C94000CDB
S1131E3091110C94620F803219F089508550C8F7C3
S1131E400895FB01DC014150504088F08D918134AC
S1131E501CF08B350CF4805E659161341CF06B359D
S1131E600CF4605E861B611171F3990B0895881B55
S1131E70FCCF0E943E0F08F481E00895990F0008FA
S1131E80550FAA0BE0E8FEEF16161706E807F90748
S1131E90C0F012161306E407F50798F0621B730BE3
S1131EA0840B950B39F40A2661F0232B242B252B64
S1131EB021F408950A2609F4A140A6958FEF811D07
S1131EC0811D08959927882708950E94700FA59F62
S1131ED0900DB49F900DA49F800D911D1124089521
S1131EE0A29FB001B39FC001A39F700D811D112457
S1131EF0911DB29F700D811D1124911D0895F894B8
S1051F00FFCF0D
S1131F02A470A0420000F0410000204152756E6EA0
S1131F12696E6700543D00252E3266003B20483D21
S1131F220053657474696E67000A4C612074656EAF
S1131F3273696F6E20657374203A20002566000A67
S1131F424C612072E973697374616E6365203A208F
S1131F52000A4C612074656D7065726174757265F6
S1131F62203A20000A504147452030000A50414798
S1131F7245203100546865207365742074656D7062
S1131F8265726174757265206973203A00546865DC
S1131F92207365742068756D696469747920206999
S1131FA273203A0032352E350A0054686520726572
S1131FB26164206D657373616765206973203A20DB
S1131FC20048656C6C6F0053617761646F676F20C2
S1091FD2534F55530000BB
S9030000FC
